{
  "contractName": "Election",
  "abi": [
    {
      "inputs": [],
      "stateMutability": "nonpayable",
      "type": "constructor"
    },
    {
      "inputs": [],
      "name": "admin",
      "outputs": [
        {
          "internalType": "address",
          "name": "",
          "type": "address"
        }
      ],
      "stateMutability": "view",
      "type": "function",
      "constant": true
    },
    {
      "inputs": [
        {
          "internalType": "uint256",
          "name": "",
          "type": "uint256"
        }
      ],
      "name": "candidateDetails",
      "outputs": [
        {
          "internalType": "uint256",
          "name": "candidateId",
          "type": "uint256"
        },
        {
          "internalType": "string",
          "name": "header",
          "type": "string"
        },
        {
          "internalType": "string",
          "name": "slogan",
          "type": "string"
        },
        {
          "internalType": "uint256",
          "name": "voteCount",
          "type": "uint256"
        }
      ],
      "stateMutability": "view",
      "type": "function",
      "constant": true
    },
    {
      "inputs": [
        {
          "internalType": "address",
          "name": "",
          "type": "address"
        }
      ],
      "name": "voterDetails",
      "outputs": [
        {
          "internalType": "address",
          "name": "voterAddress",
          "type": "address"
        },
        {
          "internalType": "string",
          "name": "name",
          "type": "string"
        },
        {
          "internalType": "string",
          "name": "phone",
          "type": "string"
        },
        {
          "internalType": "bool",
          "name": "isVerified",
          "type": "bool"
        },
        {
          "internalType": "bool",
          "name": "hasVoted",
          "type": "bool"
        },
        {
          "internalType": "bool",
          "name": "isRegistered",
          "type": "bool"
        }
      ],
      "stateMutability": "view",
      "type": "function",
      "constant": true
    },
    {
      "inputs": [
        {
          "internalType": "uint256",
          "name": "",
          "type": "uint256"
        }
      ],
      "name": "voters",
      "outputs": [
        {
          "internalType": "address",
          "name": "",
          "type": "address"
        }
      ],
      "stateMutability": "view",
      "type": "function",
      "constant": true
    },
    {
      "inputs": [],
      "name": "getAdmin",
      "outputs": [
        {
          "internalType": "address",
          "name": "",
          "type": "address"
        }
      ],
      "stateMutability": "view",
      "type": "function",
      "constant": true
    },
    {
      "inputs": [
        {
          "internalType": "string",
          "name": "_header",
          "type": "string"
        },
        {
          "internalType": "string",
          "name": "_slogan",
          "type": "string"
        }
      ],
      "name": "addCandidate",
      "outputs": [],
      "stateMutability": "nonpayable",
      "type": "function"
    },
    {
      "inputs": [
        {
          "internalType": "string",
          "name": "_adminName",
          "type": "string"
        },
        {
          "internalType": "string",
          "name": "_adminEmail",
          "type": "string"
        },
        {
          "internalType": "string",
          "name": "_adminTitle",
          "type": "string"
        },
        {
          "internalType": "string",
          "name": "_electionTitle",
          "type": "string"
        },
        {
          "internalType": "string",
          "name": "_organizationTitle",
          "type": "string"
        }
      ],
      "name": "setElectionDetails",
      "outputs": [],
      "stateMutability": "nonpayable",
      "type": "function"
    },
    {
      "inputs": [],
      "name": "getElectionDetails",
      "outputs": [
        {
          "internalType": "string",
          "name": "adminName",
          "type": "string"
        },
        {
          "internalType": "string",
          "name": "adminEmail",
          "type": "string"
        },
        {
          "internalType": "string",
          "name": "adminTitle",
          "type": "string"
        },
        {
          "internalType": "string",
          "name": "electionTitle",
          "type": "string"
        },
        {
          "internalType": "string",
          "name": "organizationTitle",
          "type": "string"
        }
      ],
      "stateMutability": "view",
      "type": "function",
      "constant": true
    },
    {
      "inputs": [],
      "name": "getTotalCandidate",
      "outputs": [
        {
          "internalType": "uint256",
          "name": "",
          "type": "uint256"
        }
      ],
      "stateMutability": "view",
      "type": "function",
      "constant": true
    },
    {
      "inputs": [],
      "name": "getTotalVoter",
      "outputs": [
        {
          "internalType": "uint256",
          "name": "",
          "type": "uint256"
        }
      ],
      "stateMutability": "view",
      "type": "function",
      "constant": true
    },
    {
      "inputs": [
        {
          "internalType": "string",
          "name": "_name",
          "type": "string"
        },
        {
          "internalType": "string",
          "name": "_phone",
          "type": "string"
        }
      ],
      "name": "registerAsVoter",
      "outputs": [],
      "stateMutability": "nonpayable",
      "type": "function"
    },
    {
      "inputs": [
        {
          "internalType": "bool",
          "name": "_verifiedStatus",
          "type": "bool"
        },
        {
          "internalType": "address",
          "name": "voterAddress",
          "type": "address"
        }
      ],
      "name": "verifyVoter",
      "outputs": [],
      "stateMutability": "nonpayable",
      "type": "function"
    },
    {
      "inputs": [
        {
          "internalType": "uint256",
          "name": "candidateId",
          "type": "uint256"
        }
      ],
      "name": "vote",
      "outputs": [],
      "stateMutability": "nonpayable",
      "type": "function"
    },
    {
      "inputs": [],
      "name": "endElection",
      "outputs": [],
      "stateMutability": "nonpayable",
      "type": "function"
    },
    {
      "inputs": [],
      "name": "getStart",
      "outputs": [
        {
          "internalType": "bool",
          "name": "",
          "type": "bool"
        }
      ],
      "stateMutability": "view",
      "type": "function",
      "constant": true
    },
    {
      "inputs": [],
      "name": "getEnd",
      "outputs": [
        {
          "internalType": "bool",
          "name": "",
          "type": "bool"
        }
      ],
      "stateMutability": "view",
      "type": "function",
      "constant": true
    }
  ],
  "bytecode": "0x608060405234801561001057600080fd5b50336000806101000a81548173ffffffffffffffffffffffffffffffffffffffff021916908373ffffffffffffffffffffffffffffffffffffffff160217905550600060018190555060006002819055506000600360006101000a81548160ff0219169083151502179055506000600360016101000a81548160ff021916908315150217905550611ecf806100a66000396000f3fe608060405234801561001057600080fd5b50600436106101005760003560e01c806364d198a111610097578063da58c7d911610066578063da58c7d91461027d578063ed836bc3146102ad578063f851a440146102cf578063fee0d19a146102ed57610100565b806364d198a1146102055780636e9960c3146102235780639f05a36d14610241578063c5292c671461025f57610100565b8063506b8e0a116100d3578063506b8e0a146101775780635938750d1461019357806359f78468146101c85780636247e532146101d257610100565b80630121b93f146101055780630b93400e14610121578063253e74e21461013f57806326541b561461015b575b600080fd5b61011f600480360381019061011a9190611467565b610309565b005b61012961056d565b60405161013691906114a3565b60405180910390f35b61015960048036038101906101549190611604565b610577565b005b6101756004803603810190610170919061170b565b6106ff565b005b610191600480360381019061018c9190611819565b610834565b005b6101ad60048036038101906101a89190611859565b6109af565b6040516101bf9695949392919061192c565b60405180910390f35b6101d0610b42565b005b6101ec60048036038101906101e79190611467565b610c08565b6040516101fc949392919061199b565b60405180910390f35b61020d610d48565b60405161021a91906114a3565b60405180910390f35b61022b610d52565b60405161023891906119ee565b60405180910390f35b610249610d7b565b6040516102569190611a09565b60405180910390f35b610267610d92565b6040516102749190611a09565b60405180910390f35b61029760048036038101906102929190611467565b610da9565b6040516102a491906119ee565b60405180910390f35b6102b5610de8565b6040516102c6959493929190611a24565b60405180910390f35b6102d76110d6565b6040516102e491906119ee565b60405180910390f35b6103076004803603810190610302919061170b565b6110fa565b005b60001515600b60003373ffffffffffffffffffffffffffffffffffffffff1673ffffffffffffffffffffffffffffffffffffffff16815260200190815260200160002060030160019054906101000a900460ff1615151461039f576040517f08c379a000000000000000000000000000000000000000000000000000000000815260040161039690611ae6565b60405180910390fd5b60011515600b60003373ffffffffffffffffffffffffffffffffffffffff1673ffffffffffffffffffffffffffffffffffffffff16815260200190815260200160002060030160009054906101000a900460ff16151514610435576040517f08c379a000000000000000000000000000000000000000000000000000000000815260040161042c90611b52565b60405180910390fd5b60011515600360009054906101000a900460ff1615151461048b576040517f08c379a000000000000000000000000000000000000000000000000000000000815260040161048290611bbe565b60405180910390fd5b60001515600360019054906101000a900460ff161515146104e1576040517f08c379a00000000000000000000000000000000000000000000000000000000081526004016104d890611c2a565b60405180910390fd5b60016004600083815260200190815260200160002060030160008282546105089190611c79565b925050819055506001600b60003373ffffffffffffffffffffffffffffffffffffffff1673ffffffffffffffffffffffffffffffffffffffff16815260200190815260200160002060030160016101000a81548160ff02191690831515021790555050565b6000600254905090565b60008054906101000a900473ffffffffffffffffffffffffffffffffffffffff1673ffffffffffffffffffffffffffffffffffffffff163373ffffffffffffffffffffffffffffffffffffffff1614610605576040517f08c379a00000000000000000000000000000000000000000000000000000000081526004016105fc90611d41565b60405180910390fd5b6040518060a00160405280868152602001858152602001848152602001838152602001828152506005600082015181600001908051906020019061064a92919061137a565b50602082015181600101908051906020019061066792919061137a565b50604082015181600201908051906020019061068492919061137a565b5060608201518160030190805190602001906106a192919061137a565b5060808201518160040190805190602001906106be92919061137a565b509050506001600360006101000a81548160ff0219169083151502179055506000600360016101000a81548160ff0219169083151502179055505050505050565b60008054906101000a900473ffffffffffffffffffffffffffffffffffffffff1673ffffffffffffffffffffffffffffffffffffffff163373ffffffffffffffffffffffffffffffffffffffff161461078d576040517f08c379a000000000000000000000000000000000000000000000000000000000815260040161078490611d41565b60405180910390fd5b6040518060800160405280600154815260200183815260200182815260200160008152506004600060015481526020019081526020016000206000820151816000015560208201518160010190805190602001906107ec92919061137a565b50604082015181600201908051906020019061080992919061137a565b506060820151816003015590505060018060008282546108299190611c79565b925050819055505050565b60008054906101000a900473ffffffffffffffffffffffffffffffffffffffff1673ffffffffffffffffffffffffffffffffffffffff163373ffffffffffffffffffffffffffffffffffffffff16146108c2576040517f08c379a00000000000000000000000000000000000000000000000000000000081526004016108b990611d41565b60405180910390fd5b600b60008273ffffffffffffffffffffffffffffffffffffffff1673ffffffffffffffffffffffffffffffffffffffff16815260200190815260200160002060030160029054906101000a900460ff16610951576040517f08c379a000000000000000000000000000000000000000000000000000000000815260040161094890611dad565b60405180910390fd5b81600b60008373ffffffffffffffffffffffffffffffffffffffff1673ffffffffffffffffffffffffffffffffffffffff16815260200190815260200160002060030160006101000a81548160ff0219169083151502179055505050565b600b6020528060005260406000206000915090508060000160009054906101000a900473ffffffffffffffffffffffffffffffffffffffff16908060010180546109f890611dfc565b80601f0160208091040260200160405190810160405280929190818152602001828054610a2490611dfc565b8015610a715780601f10610a4657610100808354040283529160200191610a71565b820191906000526020600020905b815481529060010190602001808311610a5457829003601f168201915b505050505090806002018054610a8690611dfc565b80601f0160208091040260200160405190810160405280929190818152602001828054610ab290611dfc565b8015610aff5780601f10610ad457610100808354040283529160200191610aff565b820191906000526020600020905b815481529060010190602001808311610ae257829003601f168201915b5050505050908060030160009054906101000a900460ff16908060030160019054906101000a900460ff16908060030160029054906101000a900460ff16905086565b60008054906101000a900473ffffffffffffffffffffffffffffffffffffffff1673ffffffffffffffffffffffffffffffffffffffff163373ffffffffffffffffffffffffffffffffffffffff1614610bd0576040517f08c379a0000000000000000000000000000000000000000000000000000000008152600401610bc790611d41565b60405180910390fd5b6001600360016101000a81548160ff0219169083151502179055506000600360006101000a81548160ff021916908315150217905550565b6004602052806000526040600020600091509050806000015490806001018054610c3190611dfc565b80601f0160208091040260200160405190810160405280929190818152602001828054610c5d90611dfc565b8015610caa5780601f10610c7f57610100808354040283529160200191610caa565b820191906000526020600020905b815481529060010190602001808311610c8d57829003601f168201915b505050505090806002018054610cbf90611dfc565b80601f0160208091040260200160405190810160405280929190818152602001828054610ceb90611dfc565b8015610d385780601f10610d0d57610100808354040283529160200191610d38565b820191906000526020600020905b815481529060010190602001808311610d1b57829003601f168201915b5050505050908060030154905084565b6000600154905090565b60008060009054906101000a900473ffffffffffffffffffffffffffffffffffffffff16905090565b6000600360019054906101000a900460ff16905090565b6000600360009054906101000a900460ff16905090565b600a8181548110610db957600080fd5b906000526020600020016000915054906101000a900473ffffffffffffffffffffffffffffffffffffffff1681565b606080606080606060056000016005600101600560020160056003016005600401848054610e1590611dfc565b80601f0160208091040260200160405190810160405280929190818152602001828054610e4190611dfc565b8015610e8e5780601f10610e6357610100808354040283529160200191610e8e565b820191906000526020600020905b815481529060010190602001808311610e7157829003601f168201915b50505050509450838054610ea190611dfc565b80601f0160208091040260200160405190810160405280929190818152602001828054610ecd90611dfc565b8015610f1a5780601f10610eef57610100808354040283529160200191610f1a565b820191906000526020600020905b815481529060010190602001808311610efd57829003601f168201915b50505050509350828054610f2d90611dfc565b80601f0160208091040260200160405190810160405280929190818152602001828054610f5990611dfc565b8015610fa65780601f10610f7b57610100808354040283529160200191610fa6565b820191906000526020600020905b815481529060010190602001808311610f8957829003601f168201915b50505050509250818054610fb990611dfc565b80601f0160208091040260200160405190810160405280929190818152602001828054610fe590611dfc565b80156110325780601f1061100757610100808354040283529160200191611032565b820191906000526020600020905b81548152906001019060200180831161101557829003601f168201915b5050505050915080805461104590611dfc565b80601f016020809104026020016040519081016040528092919081815260200182805461107190611dfc565b80156110be5780601f10611093576101008083540402835291602001916110be565b820191906000526020600020905b8154815290600101906020018083116110a157829003601f168201915b50505050509050945094509450945094509091929394565b60008054906101000a900473ffffffffffffffffffffffffffffffffffffffff1681565b600b60003373ffffffffffffffffffffffffffffffffffffffff1673ffffffffffffffffffffffffffffffffffffffff16815260200190815260200160002060030160029054906101000a900460ff161561118a576040517f08c379a000000000000000000000000000000000000000000000000000000000815260040161118190611e79565b60405180910390fd5b6040518060c001604052803373ffffffffffffffffffffffffffffffffffffffff16815260200183815260200182815260200160001515815260200160001515815260200160011515815250600b60003373ffffffffffffffffffffffffffffffffffffffff1673ffffffffffffffffffffffffffffffffffffffff16815260200190815260200160002060008201518160000160006101000a81548173ffffffffffffffffffffffffffffffffffffffff021916908373ffffffffffffffffffffffffffffffffffffffff160217905550602082015181600101908051906020019061127892919061137a565b50604082015181600201908051906020019061129592919061137a565b5060608201518160030160006101000a81548160ff02191690831515021790555060808201518160030160016101000a81548160ff02191690831515021790555060a08201518160030160026101000a81548160ff021916908315150217905550905050600a339080600181540180825580915050600190039060005260206000200160009091909190916101000a81548173ffffffffffffffffffffffffffffffffffffffff021916908373ffffffffffffffffffffffffffffffffffffffff16021790555060016002600082825461136f9190611c79565b925050819055505050565b82805461138690611dfc565b90600052602060002090601f0160209004810192826113a857600085556113ef565b82601f106113c157805160ff19168380011785556113ef565b828001600101855582156113ef579182015b828111156113ee5782518255916020019190600101906113d3565b5b5090506113fc9190611400565b5090565b5b80821115611419576000816000905550600101611401565b5090565b6000604051905090565b600080fd5b600080fd5b6000819050919050565b61144481611431565b811461144f57600080fd5b50565b6000813590506114618161143b565b92915050565b60006020828403121561147d5761147c611427565b5b600061148b84828501611452565b91505092915050565b61149d81611431565b82525050565b60006020820190506114b86000830184611494565b92915050565b600080fd5b600080fd5b6000601f19601f8301169050919050565b7f4e487b7100000000000000000000000000000000000000000000000000000000600052604160045260246000fd5b611511826114c8565b810181811067ffffffffffffffff821117156115305761152f6114d9565b5b80604052505050565b600061154361141d565b905061154f8282611508565b919050565b600067ffffffffffffffff82111561156f5761156e6114d9565b5b611578826114c8565b9050602081019050919050565b82818337600083830152505050565b60006115a76115a284611554565b611539565b9050828152602081018484840111156115c3576115c26114c3565b5b6115ce848285611585565b509392505050565b600082601f8301126115eb576115ea6114be565b5b81356115fb848260208601611594565b91505092915050565b600080600080600060a086880312156116205761161f611427565b5b600086013567ffffffffffffffff81111561163e5761163d61142c565b5b61164a888289016115d6565b955050602086013567ffffffffffffffff81111561166b5761166a61142c565b5b611677888289016115d6565b945050604086013567ffffffffffffffff8111156116985761169761142c565b5b6116a4888289016115d6565b935050606086013567ffffffffffffffff8111156116c5576116c461142c565b5b6116d1888289016115d6565b925050608086013567ffffffffffffffff8111156116f2576116f161142c565b5b6116fe888289016115d6565b9150509295509295909350565b6000806040838503121561172257611721611427565b5b600083013567ffffffffffffffff8111156117405761173f61142c565b5b61174c858286016115d6565b925050602083013567ffffffffffffffff81111561176d5761176c61142c565b5b611779858286016115d6565b9150509250929050565b60008115159050919050565b61179881611783565b81146117a357600080fd5b50565b6000813590506117b58161178f565b92915050565b600073ffffffffffffffffffffffffffffffffffffffff82169050919050565b60006117e6826117bb565b9050919050565b6117f6816117db565b811461180157600080fd5b50565b600081359050611813816117ed565b92915050565b600080604083850312156118305761182f611427565b5b600061183e858286016117a6565b925050602061184f85828601611804565b9150509250929050565b60006020828403121561186f5761186e611427565b5b600061187d84828501611804565b91505092915050565b61188f816117db565b82525050565b600081519050919050565b600082825260208201905092915050565b60005b838110156118cf5780820151818401526020810190506118b4565b838111156118de576000848401525b50505050565b60006118ef82611895565b6118f981856118a0565b93506119098185602086016118b1565b611912816114c8565b840191505092915050565b61192681611783565b82525050565b600060c0820190506119416000830189611886565b818103602083015261195381886118e4565b9050818103604083015261196781876118e4565b9050611976606083018661191d565b611983608083018561191d565b61199060a083018461191d565b979650505050505050565b60006080820190506119b06000830187611494565b81810360208301526119c281866118e4565b905081810360408301526119d681856118e4565b90506119e56060830184611494565b95945050505050565b6000602082019050611a036000830184611886565b92915050565b6000602082019050611a1e600083018461191d565b92915050565b600060a0820190508181036000830152611a3e81886118e4565b90508181036020830152611a5281876118e4565b90508181036040830152611a6681866118e4565b90508181036060830152611a7a81856118e4565b90508181036080830152611a8e81846118e4565b90509695505050505050565b7f566f7465722068617320616c726561647920766f746564000000000000000000600082015250565b6000611ad06017836118a0565b9150611adb82611a9a565b602082019050919050565b60006020820190508181036000830152611aff81611ac3565b9050919050565b7f566f746572206973206e6f742076657269666965640000000000000000000000600082015250565b6000611b3c6015836118a0565b9150611b4782611b06565b602082019050919050565b60006020820190508181036000830152611b6b81611b2f565b9050919050565b7f456c656374696f6e20686173206e6f7420737461727465642079657400000000600082015250565b6000611ba8601c836118a0565b9150611bb382611b72565b602082019050919050565b60006020820190508181036000830152611bd781611b9b565b9050919050565b7f456c656374696f6e2068617320656e6465640000000000000000000000000000600082015250565b6000611c146012836118a0565b9150611c1f82611bde565b602082019050919050565b60006020820190508181036000830152611c4381611c07565b9050919050565b7f4e487b7100000000000000000000000000000000000000000000000000000000600052601160045260246000fd5b6000611c8482611431565b9150611c8f83611431565b9250827fffffffffffffffffffffffffffffffffffffffffffffffffffffffffffffffff03821115611cc457611cc3611c4a565b5b828201905092915050565b7f4f6e6c792061646d696e2063616e2061636365737320746869732066756e637460008201527f696f6e0000000000000000000000000000000000000000000000000000000000602082015250565b6000611d2b6023836118a0565b9150611d3682611ccf565b604082019050919050565b60006020820190508181036000830152611d5a81611d1e565b9050919050565b7f566f746572206973206e6f742072656769737465726564000000000000000000600082015250565b6000611d976017836118a0565b9150611da282611d61565b602082019050919050565b60006020820190508181036000830152611dc681611d8a565b9050919050565b7f4e487b7100000000000000000000000000000000000000000000000000000000600052602260045260246000fd5b60006002820490506001821680611e1457607f821691505b602082108103611e2757611e26611dcd565b5b50919050565b7f566f74657220697320616c726561647920726567697374657265640000000000600082015250565b6000611e63601b836118a0565b9150611e6e82611e2d565b602082019050919050565b60006020820190508181036000830152611e9281611e56565b905091905056fea2646970667358221220184ac1a90f72721473bb353e0d3fe93706352a221499fdcf7dc41712bd4b890b64736f6c634300080d0033",
  "immutableReferences": {},
  "source": "// SPDX-License-Identifier: MIT\r\npragma solidity ^0.8.10;\r\n\r\ncontract Election {\r\n    address public admin;\r\n    uint256 candidateCount;\r\n    uint256 voterCount;\r\n    bool start;\r\n    bool end;\r\n\r\n    constructor() {\r\n        // Initializing default values\r\n        admin = msg.sender;\r\n        candidateCount = 0;\r\n        voterCount = 0;\r\n        start = false;\r\n        end = false;\r\n    }\r\n\r\n    function getAdmin() public view returns (address) {\r\n        // Returns account address used to deploy contract (i.e. admin)\r\n        return admin;\r\n    }\r\n\r\n    modifier onlyAdmin() {\r\n        // Modifier for only admin access\r\n        require(msg.sender == admin, \"Only admin can access this function\");\r\n        _;\r\n    }\r\n    \r\n    // Modeling a candidate\r\n    struct Candidate {\r\n        uint256 candidateId;\r\n        string header;\r\n        string slogan;\r\n        uint256 voteCount;\r\n    }\r\n    mapping(uint256 => Candidate) public candidateDetails;\r\n\r\n    // Adding new candidates\r\n    function addCandidate(string memory _header, string memory _slogan)\r\n        public\r\n        onlyAdmin\r\n    {\r\n        candidateDetails[candidateCount] = Candidate({\r\n            candidateId: candidateCount,\r\n            header: _header,\r\n            slogan: _slogan,\r\n            voteCount: 0\r\n        });\r\n        candidateCount += 1;\r\n    }\r\n\r\n    // Modeling an Election Details\r\n    struct ElectionDetails {\r\n        string adminName;\r\n        string adminEmail;\r\n        string adminTitle;\r\n        string electionTitle;\r\n        string organizationTitle;\r\n    }\r\n    ElectionDetails electionDetails;\r\n\r\n    function setElectionDetails(\r\n        string memory _adminName,\r\n        string memory _adminEmail,\r\n        string memory _adminTitle,\r\n        string memory _electionTitle,\r\n        string memory _organizationTitle\r\n    )\r\n        public\r\n        onlyAdmin\r\n    {\r\n        electionDetails = ElectionDetails(\r\n            _adminName,\r\n            _adminEmail,\r\n            _adminTitle,\r\n            _electionTitle,\r\n            _organizationTitle\r\n        );\r\n        start = true;\r\n        end = false;\r\n    }\r\n\r\n    // Get Election details\r\n    function getElectionDetails()\r\n        public\r\n        view\r\n        returns (\r\n            string memory adminName, \r\n            string memory adminEmail, \r\n            string memory adminTitle, \r\n            string memory electionTitle, \r\n            string memory organizationTitle\r\n        ) \r\n    {\r\n        return (\r\n            electionDetails.adminName, \r\n            electionDetails.adminEmail, \r\n            electionDetails.adminTitle, \r\n            electionDetails.electionTitle, \r\n            electionDetails.organizationTitle\r\n        );\r\n    }\r\n\r\n    // Get candidates count\r\n    function getTotalCandidate() public view returns (uint256) {\r\n        // Returns total number of candidates\r\n        return candidateCount;\r\n    }\r\n\r\n    // Get voters count\r\n    function getTotalVoter() public view returns (uint256) {\r\n        // Returns total number of voters\r\n        return voterCount;\r\n    }\r\n\r\n    // Modeling a voter\r\n    struct Voter {\r\n        address voterAddress;\r\n        string name;\r\n        string phone;\r\n        bool isVerified;\r\n        bool hasVoted;\r\n        bool isRegistered;\r\n    }\r\n    address[] public voters; // Array of address to store addresses of voters\r\n    mapping(address => Voter) public voterDetails;\r\n\r\n    // Request to be added as voter\r\n    function registerAsVoter(string memory _name, string memory _phone) public {\r\n        require(!voterDetails[msg.sender].isRegistered, \"Voter is already registered\");\r\n        voterDetails[msg.sender] = Voter({\r\n            voterAddress: msg.sender,\r\n            name: _name,\r\n            phone: _phone,\r\n            hasVoted: false,\r\n            isVerified: false,\r\n            isRegistered: true\r\n        });\r\n        voters.push(msg.sender);\r\n        voterCount += 1;\r\n    }\r\n\r\n    // Verify voter\r\n    function verifyVoter(bool _verifiedStatus, address voterAddress)\r\n        public\r\n        onlyAdmin\r\n    {\r\n        require(voterDetails[voterAddress].isRegistered, \"Voter is not registered\");\r\n        voterDetails[voterAddress].isVerified = _verifiedStatus;\r\n    }\r\n\r\n    // Vote\r\n    function vote(uint256 candidateId) public {\r\n        require(voterDetails[msg.sender].hasVoted == false, \"Voter has already voted\");\r\n        require(voterDetails[msg.sender].isVerified == true, \"Voter is not verified\");\r\n        require(start == true, \"Election has not started yet\");\r\n        require(end == false, \"Election has ended\");\r\n        candidateDetails[candidateId].voteCount += 1;\r\n        voterDetails[msg.sender].hasVoted = true;\r\n    }\r\n\r\n    // End election\r\n    function endElection() public onlyAdmin {\r\n        end = true;\r\n        start = false;\r\n    }\r\n\r\n    // Get election start and end values\r\n    function getStart() public view returns (bool) {\r\n        return start;\r\n    }\r\n\r\n    function getEnd() public view returns (bool) {\r\n        return end;\r\n    }\r\n}",
  "sourcePath": "C:\\Users\\fedib\\Desktop\\Votini\\backend\\contracts\\Election.sol",
  "compiler": {
    "name": "solc",
    "version": "0.8.13+commit.abaa5c0e.Emscripten.clang"
  },
  "schemaVersion": "3.4.16",
  "updatedAt": "2024-11-22T11:13:05.178Z",
  "networkType": "ethereum",
  "devdoc": {
    "kind": "dev",
    "methods": {},
    "version": 1
  },
  "userdoc": {
    "kind": "user",
    "methods": {},
    "version": 1
  }
}